:02000000512885
:10000800DF00030E8301AF000A08AE008A010B1C53
:1000180024288312851E18282008031D1828010883
:10002800A2000130A0002328851A232820080319DC
:10003800232822080102A300A0010130A4000B100C
:0E0048002E088A002F0E8300DF0E5F0E0900C7
:0C00560083122D088A002C08820008008C
:100062002B208A110A128000840AAC0A0319AD0AF5
:08007200D003031D3128080032
:10007A008312AB0130082B0203185028A40124086C
:10008A00031D482844282308703C03184E28AB0A4D
:08009A004F28AB013F280800CC
:1000A2008312A001A101A201BC30A300A401A501F9
:1000B200A6018030A700A801A901AA018316FF2387
:1000C20090008312173099000230831681008B173B
:1000D2008B15203096002030950085168514051466
:1000E20005160515FF30831285006430B0003D20EF
:1000F20024080319E0282308BC3C03188A28853009
:10010200270203188728A70AA90189280130A90014
:1001120093282708803C03189228A7030130A900DE
:100122009328A901DA282808031DD1280130A80044
:10013200831605120511851005100D30DC00FB3009
:10014200DD00DD0BA228DC0BA2280000000010302D
:100152002A020318D1284230DD00DD0BAE28000050
:10016200A50A0319A60A2608023A031DBA2858301E
:100172002506031DBF28A501A601AA0AA10A210876
:10018200103C0318C528A1012A0821020318CD2812
:10019200831685100510D028831685140514A82807
:1001A200DF288316A8018514051405160515AA0172
:1001B200DF282908013A03199428D228A4017928B2
:0201C200E12832
:02400E0004317B
:00000001FF
