:02000000F428E2
:10000800DF00030E8301B5000A08B4008A010B1C47
:1000180024288312851E18282008031D1828010883
:10002800A1000130A0002328851A232820080319DD
:10003800232821080102A300A0010130A5000B100C
:0E00480034088A00350E8300DF0E5F0E0900BB
:0C005600831237088A0036088200080078
:1000620083169C1C36280000312839089B003A0868
:100072009A009C131C150B08D0008B1355309D0061
:10008200AA309D009C14D01B48288B1349288B173B
:040092001C11080035
:100096008312B0013908300203185E28A50125082D
:1000A600031D562852282308703C03185C28B00A02
:0800B6005D28B0014D2808008F
:1000BE002B208A110A128000840AB60A0319B70A85
:0800CE00D003031D5F280800A8
:1000D6008312380883169B009C131C141A08D00040
:0200E600080010
:1000E8008312A5012508031D7A2876289C3023024F
:1000F80003188428831605108514051505169D28F0
:10010800BC30230203188E288316051485100515A4
:1001180005169D28DB30230203189828831605143A
:100128008514051105169D288316051485140515D3
:0601380005127428080006
:10013E0083160510851005110512B0012308BC3C6D
:10014E000318BE28A601963030020318BD28A5015B
:10015E002508031DB328AF28230824020318BB2843
:10016E002308A400B001BC28B00AAA28D328013065
:10017E00A600963030020318D328A5012508031DCA
:10018E00C928C528240823020318D1282308A4004F
:10019E00B001D228B00AC0280230B9002408BA0033
:1001AE00312005148514051505162308C83C031CBB
:1001BE00E528AF302302031CE528E628DC2896301C
:1001CE00B9004B202308A2000130B9002308BA0061
:0A01DE003120B901BA0131200800F8
:1001E8008312A001A101A201BC30A300BC30A4006D
:1001F800A501A601A701A801A901AA01AB01AC01AB
:10020800AD01AE01AF018316FF23900083121730B2
:1002180099000230831681008B178B1520309600C9
:100228002030950085160514851405150516FF3030
:10023800831285006430B9004B20AF302302031CC1
:100248002A292308C83C031C2A292B299F2003306C
:10025800DB008A30DC005530DD00DD0B3129DC0B9A
:100268003129DB0B312900000000B8016B20500850
:10027800FF3A031D402974200130B8006B20500854
:10028800A20002305002B10002305007B300023021
:10029800B8006B205008A4002208500203186929EE
:1002A8000130A60024082202D300D401031CD40381
:1002B8005308D0005408D100D10CD00CD113511BD5
:1002C800D11750082202B2007B2922082402D30049
:1002D800D401031CD4035308D0005408D100D10C16
:1002E800D00CD113511BD11750082207B200AC0112
:1002F8000430AF00051025080319332A23083302F8
:100308000318962985302E0203188D29AE0AAC01F0
:1003180095292608031993290230AC009529013044
:10032800AC00AD29310823020318AA292E087B3C0A
:100338000318A129AE03AC01A92926080319A72986
:100348000130AC00A9290230AC00AD298030AE00E4
:10035800AC01292A83160430AF000515AD01260823
:100368000319C529320823020318C0296430290259
:100378000318C029A90AC42929080319C429A903EB
:10038800D329230832020318CF296430290203181D
:10039800CF29A90AD32929080319D329A903322A5D
:1003A8002D08023A031DDB2983160511DF291030B9
:1003B800AF000130AD0032302902031CFB290330A5
:1003C80083120105D0000030D1005D30D007023023
:1003D8000318013ED1075008B6005108B7002B207A
:1003E8008A110A12A8000730A700A901FF292908C5
:1003F8000319FF29A903322A0430AF002D08013A56
:10040800031D082A0230AD0032302902031C242AB9
:10041800831203300105D0000030D1005D30D007D1
:1004280002300318013ED1075008B6005108B70042
:100438002B208A110A12A8000730A700A901282A30
:1004480029080319282AA903322A2C08013A031972
:10045800AE292C08023A0319D429002AA501AB03B6
:100468002B08003A031D472A3230AB00270803192E
:10047800472AA7032818432A83160516452A8316F0
:100488000512A80CA813AA0A2A08103C03184D2A1A
:10049800AA012F082A020318542A83168510562AFF
:1004A800831685144230DD00DD0B582A00007F29B1
:0204B8005C2ABC
:0804BA0081342834013491342F
:02400E0004317B
:00000001FF
