:02000000512885
:10000800DF00030E8301A9000A08AA008A010B1C5D
:1000180024288312851E18282308031D1828010880
:10002800A2000130A3002328851A232823080319D6
:10003800232822080102A000A3010130A1000B100F
:0E0048002A088A00290E8300DF0E5F0E0900D1
:0C005600831228088A0027088200080096
:100062002B208A110A128000840AA70A0319A80AFF
:08007200D003031D3128080032
:10007A008312A6012B08260203185028A101210881
:10008A00031D482844282008703C03184E28A60A55
:08009A004F28A6013F280800D1
:1000A200BC308312A000A101A201A3018030A400F0
:1000B200A5018316FF2390008312173099000230A6
:1000C200831681008B178B15203096002030950007
:1000D20085168514051405160515FF308312850053
:1000E2006430AB003D2021080319A1282008BC3C44
:1000F200031885288530240203188228A40AA50142
:1001020084280130A5008E282408803C03188D28FD
:10011200A4030130A5008E28A5019B288316851013
:10012200051005120511A02883168514051405165D
:100132000515A0282508013A03198F289528A10141
:040142007428A22853
:02400E0004317B
:00000001FF
