:02000000F428E2
:10000800DF00030E8301B7000A08BA008A010B1C3F
:1000180024288312851E18283208031D1828010871
:10002800B1000130B2002328851A232832080319A9
:10003800232831080102A600B2010130A4000B10E8
:0E0048003A088A00370E8300DF0E5F0E0900B3
:0C005600831239088A0038088200080074
:1000620083169C1C3628000031283C089B003D0862
:100072009A009C131C150B08D0008B1355309D0061
:10008200AA309D009C14D01B48288B1349288B173B
:040092001C11080035
:100096008312B3013C08330203185E28A401240826
:1000A600031D562852282608703C03185C28B30AFC
:0800B6005D28B3014D2808008C
:1000BE002B208A110A128000840AB80A0319B90A81
:0800CE00D003031D5F280800A8
:1000D60083123B0883169B009C131C141A08D0003D
:0200E600080010
:1000E8008312A4012408031D7A2876289C3026024E
:1000F80003188428831605108514051505169D28F0
:10010800BC30260203188E288316051485100515A1
:1001180005169D28DB302602031898288316051437
:100128008514051105169D288316051485140515D3
:0601380005127428080006
:10013E0083160510851005110512B3012608BC3C67
:10014E000318BE28A501963033020318BD28A4015A
:10015E002408031DB328AF28260822020318BB2843
:10016E002608A200B301BC28B30AAA28D32801305E
:10017E00A500963033020318D328A4012408031DCA
:10018E00C928C528220826020318D1282608A2004D
:10019E00B301D228B30AC0280230BC002208BD0029
:1001AE00312005148514051505162608C83C031CB8
:1001BE00E528AF302602031CE528E628DC28963019
:1001CE00BC004B202608A1000130BC002608BD0053
:0A01DE003120BC01BD0131200800F2
:1001E8008312A001A101BC30A200A301A401A501B2
:1001F800BC30A600A701A801A901AA01AB01AC0166
:10020800AD01AE01AF01B001B101B2018316FF2308
:1002180090008312173099000230831681008B17E3
:100228008B1520309600203095008516051485140E
:1002380005150516FF30831285006430BC004B207D
:10024800AF302602031C2D292608C83C031C2D2983
:100258002E299F200330DB008A30DC005530DD007A
:10026800DD0B3429DC0B3429DB0B342900000000BA
:10027800BB016B205008FF3A031D4329742001304D
:10028800BB006B205008A10002305002B6000230BB
:100298005007B5000230BB006B205008A2002108AF
:1002A800500203186C290130A50022082102D3004E
:1002B800D401031CD4035308D0005408D100D10C36
:1002C800D00CD113511BD11750082102B4007E293C
:1002D80021082202D300D401031CD4035308D00000
:1002E8005408D100D10CD00CD113511BD117500890
:1002F8002107B400B0010430AF0005100D30DC0058
:10030800FB30DD00DD0B8629DC0B862900000000B0
:1003180010302E020318B8294230DD00DD0B922977
:100328000000A90A0319AA0A2A08023A031D9E29ED
:1003380058302906031DA329A901AA01AE0AA80A53
:100348002808103C0318A929A8012E082802031818
:10035800AF290510B02905142F0828020318B6295B
:100368008510B72985148C29240803196C2A2608B6
:1003780035020318CF29853027020318C629A70A92
:10038800B001CE2925080319CC290230B000CE29A6
:100398000130B000E629360826020318E3292708A9
:1003A8007B3C0318DA29A703B001E22925080319C1
:1003B800E0290130B000E2290230B000E62980309F
:1003C800A700B001622A83160430AF000515AD01FD
:1003D80025080319FE29340826020318F929643070
:1003E8002C020318F929AC0AFD292C080319FD2948
:1003F800AC030C2A260834020318082A64302C029D
:100408000318082AAC0A0C2A2C0803190C2AAC0376
:100418006B2A2D08023A031D142A83160511182A7F
:100428001030AF000130AD0032302C02031C342AEA
:10043800033083120105D0000030D1009630D00778
:1004480002300318013ED1075008B8005108B9001E
:100458002B208A110A12AB000730A300AC01382AFE
:100468002C080319382AAC036B2A0430AF002D0876
:10047800013A031D412A0230AD0032302C02031C20
:100488005D2A831203300105D0000030D100963078
:10049800D00702300318013ED1075008B8005108B0
:1004A800B9002B208A110A12AB000730A300AC0157
:1004B800612A2C080319612AAC036B2A3008013A17
:1004C8000319E7293008023A03190D2A392AA40129
:1004D800A0032008003A031D802A3230A000230818
:1004E8000319802AA3032B187C2A831605167E2A53
:1004F80083160512AB0CAB13A80A2808103C031886
:10050800862AA8012F08280203188D2A8316851029
:100518008F2A831685144230DD00DD0B912A0000F6
:04052800B829952A2F
:08052C008134283401349134BC
:02400E0004317B
:00000001FF
